:100000000C942E000C944B000C944B000C944B0061
:100010000C944B000C944B000C944B000C94140269
:100020000C944B000C944B000C944B000C944B0024
:100030000C944B000C944B000C944B000C944B0014
:100040000C944B000C944B000C944B000C944B0004
:100050000C944B000C944B000C944B0011241FBECD
:10006000CFEFD4E0DEBFCDBF11E0A0E0B1E0EAEA1F
:10007000FEE102C005900D92AA37B107D9F724E03E
:10008000AAE7B1E001C01D92AD39B207E1F70E94C5
:100090004B0E0C94530F0C940000FC0103969283BA
:1000A00081832FEF3FEF348323839683858390876B
:1000B000878310820895FC01118610860895CF93DE
:1000C000DF93EB01488159814F3F2FEF520721F415
:1000D000FC01A781B0850DC0DC01139601C0DF01D2
:1000E0001296ED91FC9113972081318142175307AD
:1000F000B0F71296ED91FC911397FB83EA83D583B9
:10010000C483BD83AC831396DC93CE9312979987F7
:100110008887FC0120812F5F2083DF91CF91089594
:10012000CF93DF93FC01A085B185C281D381848107
:1001300095819D838C83C481D581828193819B83AA
:100140008A8311968D919C911297E817F90731F4E3
:100150008481958112969C938E93119711861086B7
:100160008C9181508C93DF91CF91089510928900EA
:100170008CE7809388008BE080938100EFE6F0E0CD
:10018000808182608083089531E1FC013083319762
:1001900022E220833197A3E3A083319760833197D4
:1001A000708331971082319760E8608331971082B5
:1001B000319762E06083319763E06083319764E058
:1001C0006083319765E06083319766E060833197A3
:1001D00067E06083319768E06083319769E060830E
:1001E000319760E1608331973083319732E130831A
:1001F000319733E13083319734E13083319735E102
:100200003083319736E13083319737E1308331974E
:1002100038E13083319739E13083319730E23083F0
:10022000319731E2308331972083319723E2208365
:100230003197408331975083319726E2208331975D
:1002400027E22083319728E22083319729E2208317
:10025000319720E32083319721E320838697089507
:100260000E94B600A0919604B0919704CD91CDBFA5
:10027000DD91DEBFFF91EF91DF91CF91BF91AF9103
:100280009F918F917F916F915F914F913F912F91AE
:100290001F910F91FF90EF90DF90CF90BF90AF90A4
:1002A0009F908F907F906F905F904F903F902F9096
:1002B0001F900F900FBE0F90089581E008950F9248
:1002C0000FB6F8940F921F9211242F923F924F92E3
:1002D0005F926F927F928F929F92AF92BF92CF92D6
:1002E000DF92EF92FF920F931F932F933F934F93C1
:1002F0005F936F937F938F939F93AF93BF93CF93AE
:10030000DF93EF93FF93A0919604B09197040DB6FD
:100310000D920EB60D920E94530AA0919604B091D0
:100320009704CD91CDBFDD91DEBFFF91EF91DF91BD
:10033000CF91BF91AF919F918F917F916F915F917D
:100340004F913F912F911F910F91FF90EF90DF9070
:10035000CF90BF90AF909F908F907F906F905F9065
:100360004F903F902F901F900F900FBE0F900895C9
:100370000F920FB6F8940F921F9211242F923F9272
:100380004F925F926F927F928F929F92AF92BF92A5
:10039000CF92DF92EF92FF920F931F932F933F9391
:1003A0004F935F936F937F938F939F93AF93BF937D
:1003B000CF93DF93EF93FF93A0919604B0919704AE
:1003C0000DB60D920EB60D920E944A0881110E9440
:1003D000530AA0919604B0919704CD91CDBFDD91C1
:1003E000DEBFFF91EF91DF91CF91BF91AF919F91D0
:1003F0008F917F916F915F914F913F912F911F91BD
:100400000F91FF90EF90DF90CF90BF90AF909F90B3
:100410008F907F906F905F904F903F902F901F90A4
:100420000F900FBE0F9008950E94B8011895CF93BA
:10043000DF93EC010E94440880917A0190917B0146
:10044000892B31F48EE791E090937B0180937A01C0
:100450002097C9F080917C0190917D019E01280F29
:10046000391F2B3B42E0340788F48217930788F446
:10047000C0917A01D0917B01C80FD91F30937D01C3
:1004800020937C0108C0C0E0D0E005C0C0E0D0E00F
:1004900002C0C0E0D0E00E946409CE01DF91CF919C
:1004A00008950895DC0151962C915197222341F033
:1004B0005696ED91FC915797908184E0891B0895A1
:1004C00080E008950FB6F8940F92FC01828D81119F
:1004D00002C081E001C080E00F900FBE08950FB60A
:1004E000F8940F92FC01228D838D281302C081E0C5
:1004F00001C080E00F900FBE08950F931F93CF931C
:10050000DF93EC01042F1A8D4C8D41110CC08881B2
:100510009981892B09F042C08C819D810E94590CE0
:100520001D821C8242C0011117C050E08A819B814C
:100530000E944A0F2C8D8A819B81820F911D9B8383
:100540008A832C813D818217930750F1888199819C
:100550009B838A8380E029C050E08E819F810E9426
:100560004A0F8C8D90E09195819591092E813F8164
:10057000280F391F3F832E8348815981241735075F
:1005800030F42C813D81820F931F9F838E83023034
:1005900049F4112349F0115080E007C080E005C004
:1005A00080E003C080E001C080E01F5F1A8FDF9110
:1005B000CF911F910F910895FC01448D4423A9F020
:1005C00050E026813781240F351F378326838481AD
:1005D00095812817390720F0808191819783868340
:1005E000CB01668177810E944A0F08951F93CF93B4
:1005F000DF93EC010FB6F8940F921E8D0BC0898922
:10060000882351F0CE0141960E94C70A81110E94B1
:10061000C10B115011169CF38FEF8E8F0F900FBEF0
:100620000FB6F8940F921D8D0BC08885882351F06A
:10063000CE0108960E94C70A81110E94C10B115079
:1006400011169CF38FEF8D8F0F900FBEDF91CF911E
:100650001F9108950F931F93CF93DF93FC01362FC3
:10066000892B09F44DC0238D222309F44BC0022F9E
:1006700010E08FEF9FEFB8010E94050F448D842F8B
:1006800090E06817790708F43FC0EF010FB6F894BF
:100690000F9260817181FB01249FE00DF11D1124F7
:1006A000FD83EC831A8E7B836A8301501109809F3E
:1006B000A001819F500D909F500D1124CB01840FFC
:1006C000951F9F838E838FEF8D8F8E8F31110CC07E
:1006D0008885882389F0CE0108960E94C70A88235E
:1006E00059F00E945F0108C0CE0108960E944D009B
:1006F000CE0141960E944D000F900FBE81E005C0D3
:1007000080E003C080E001C080E0DF91CF911F91C5
:100710000F9108950F931F93F801611103C0118386
:10072000008302C051834083838F648F61E0CF01D7
:100730000E942A031F910F910895DF92EF92FF927A
:100740000F931F93CF93DF93382FE62F882329F140
:10075000E82EF12C8FEF9FEFB7010E94050FAE2F0F
:10076000B0E06A177B07E0F03E9FC0011124813E94
:100770009105CCF4D42EDE2FC32F4F960E94170282
:100780007C01009791F08C012D2DAC01415E5F4FF3
:100790006D2F8C2F0E948A0308C0E12CF12C05C01C
:1007A000E12CF12C02C0E12CF12CC701DF91CF919B
:1007B0001F910F91FF90EF90DF900895CF92DF92FD
:1007C000EF92FF920F931F93CF93DF9300D000D04F
:1007D0001F92CDB7DEB78C017B015D834C83C22EA7
:1007E000D12C0FB6F8940F92F801928D838D981743
:1007F00018F0F2E0CF1219C04C2DB701C8010E94C9
:100800007D02F8019189992349F0C80141960E941F
:10081000C70A882331F00E945F0103C081110E9442
:100820005F010F900FBE81E04DC08C819D81892BAF
:1008300021F40F900FBE80E045C0D11006C0CE015C
:1008400001960E94840BDD24D3940F900FBE0E946A
:1008500044080FB6F8940F92F801858D8F3F09F484
:10086000158EF801868D8F3F09F4168E0F900FBEFE
:10087000BE016C5F7F4FCE0101960E948F0B8111EC
:100880001BC0C8010E946F02882381F06C817D81AA
:10089000C80108960E94B50AC8010E94F6020E948B
:1008A000640981119ECF0E945F019BCFC8010E9405
:1008B000F6020E94640995CFC8010E94F6020E94C8
:1008C000640980E00F900F900F900F900F90DF91D0
:1008D000CF911F910F91FF90EF90DF90CF900895EF
:1008E000009769F0FC011582148211821082168231
:1008F00020E040E050E060E070E00E94DE030895F8
:10090000CF93DF93482F60E081E00E949D03EC01CC
:100910000E947004CE01DF91CF910895CF92DF92B3
:10092000EF92FF920F931F93CF93DF9300D000D0ED
:100930001F92CDB7DEB78C016B015D834C83E12C38
:100940000FB6F8940F92F801F28CFF20A9F0B601CF
:10095000C8010E94DC02FA94F801F28E8085882397
:1009600039F0C80108960E94C70A81110E945F01F0
:100970000F900FBE81E053C08C819D81892B21F4A3
:100980000F900FBE80E04BC0E11006C0CE01019673
:100990000E94840BEE24E3940F900FBE0E94440843
:1009A0000FB6F8940F92F801858D8F3F09F4158EDC
:1009B000F801868D8F3F09F4168E0F900FBEBE0191
:1009C0006C5F7F4FCE0101960E948F0B81111BC07F
:1009D000C8010E946202882381F06C817D81C80178
:1009E00041960E94B50AC8010E94F6020E9464095D
:1009F0008111A6CF0E945F01A3CFC8010E94F60219
:100A00000E9464099DCFC8010E94F6020E946409F9
:100A1000C8010E946202882309F492CF80E00F90FF
:100A20000F900F900F900F90DF91CF911F910F912A
:100A3000FF90EF90DF90CF900895EF92FF920F9389
:100A40001F93CF93DF9300D000D01F92CDB7DEB7B6
:100A50008C017D836C83E12CF12C0FB6F8940F92FE
:100A6000F801828D8823D1F08150828F808191811D
:100A7000892B29F40E942F0DF80195838483F801B6
:100A80008085882339F0C80108960E94C70A811121
:100A90000E945F010F900FBE81E074C08C819D8128
:100AA000892B21F40F900FBE80E06CC0F11006C0BE
:100AB000CE0101960E94840BFF24F3940F900FBE89
:100AC0000E9444080FB6F8940F92F801858D8F3F6D
:100AD00009F4158EF801868D8F3F09F4168E0F905C
:100AE0000FBEBE016C5F7F4FCE0101960E948F0B3F
:100AF00081112AC0C8010E9462028823F9F0F8011E
:100B000080819181892B51F40FB6F8940F928481E2
:100B100095810E94C50BE82E0F900FBE6C817D81E0
:100B2000C80141960E94B50AC8010E94F6020E94BF
:100B30006409811192CF0E945F018FCFC8010E948A
:100B4000F6020E94640989CFC8010E94F6020E9441
:100B50006409C8010E946202882309F47ECFEE2056
:100B600081F00FB6F8940F92C8010E945202682FCC
:100B7000F801848195810E94BC0C0F900FBE80E02B
:100B800001C080E00F900F900F900F900F90DF91B9
:100B9000CF911F910F91FF90EF900895E0915E0427
:100BA000F0915F048081811107C08FEF9FEF9093D8
:100BB0003E0480933D040895E0915E04F0915F044B
:100BC0000580F681E02D8081918190933E04809391
:100BD0003D040895CF93DF93EC018F89988D0E9497
:100BE0005102CE010E945102DF91CF9108958F9260
:100BF0009F92AF92BF92CF92DF92EF92FF920F93AC
:100C0000CF93DF935C014901F601C789D08D50E095
:100C100041505109C40FD51F6115710589F415C0E4
:100C2000822F90E0FB01E80FF91F3081D601A80F59
:100C3000B91F59963C938081882329F02F5F01C00A
:100C400020E0283068F3F60110A2043008F003E039
:100C5000F601068B01A3C60102960E945B00C60145
:100C60000C960E945B00F601D186C08684E090E07D
:100C7000801B910995878487D38AC28AA401B50114
:100C8000CE010E94C400F60191838083E114F10437
:100C900019F0F701D182C082DF91CF910F91FF90BF
:100CA000EF90DF90CF90BF90AF909F908F9008957E
:100CB0004F925F926F927F928F929F92AF92BF926C
:100CC000CF92DF92EF92FF920F931F93CF93DF9318
:100CD0002C014B01142F3901842F90E00E94170240
:100CE0006C01892B99F088E290E00E941702EC01D8
:100CF000892B41F088E2FE0111928A95E9F7D88E9E
:100D0000CF8A06C0C6010E94510202C0C0E0D0E0F6
:100D1000209749F0A12CB12C6E019301412FB40111
:100D2000C2010E94F705CE01DF91CF911F910F9173
:100D3000FF90EF90DF90CF90BF90AF909F908F90FB
:100D40007F906F905F904F900895CF93C0E010C058
:100D50008C2F90E09C01220F331F220F331F220F94
:100D6000331F820F931F8E589B4F0E944D00CF5F01
:100D7000C43070F389E694E00E944D0080E694E070
:100D80000E944D0083E594E00E944D008AE494E0C7
:100D90000E944D0089E694E090935F0480935E0486
:100DA00080E694E090935D0480935C04CF91089575
:100DB000CF93DF93EC010FB6F8940F928091480423
:100DC0008F5F809348048091960490919704892BBB
:100DD00059F4D0939704C0939604809148048130CD
:100DE00099F40E94A50610C08091440481110CC0A2
:100DF000E0919604F091970496898E89891720F0E6
:100E0000D0939704C093960480913F048F5F8093A2
:100E10003F048E8990914504981710F480934504FF
:100E200090E0FC01EE0FFF1FEE0FFF1FEE0FFF1F04
:100E30008E0F9F1FFC01EE58FB4F0180F281E02DC9
:100E4000FD83EC83848195819F838E83A481B5810A
:100E5000CE01029613969C938E931297958384836A
:100E6000EE89F0E0CF01880F991F880F991F880F36
:100E7000991FE80FF91FEE58FB4FFB87EA87808127
:100E80008F5F80830F900FBE80914404882351F0C0
:100E9000E0919604F091970496898E89981710F442
:100EA0000E945F01DF91CF910895CF93DF931CC023
:100EB0000FB6F8940F92E0914F04F0915004C68160
:100EC000D781CE0102960E94900080914804815003
:100ED00080934804809149048150809349040F9085
:100EE0000FBECE010E94EA05809149048111E0CF36
:100EF000DF91CF9108950E9455078091720482304E
:100F0000D0F30E945F01F7CFCF92DF92EF92FF9272
:100F10000F931F93CF93DF93EC0100914604109140
:100F20004704E0905E04F0905F04C0905C04D090B1
:100F30005D04809196049091970402960E9490001F
:100F4000C00FD11FE0919604F0919704D383C28320
:100F5000C017D10750F460919604709197046E5FAA
:100F60007F4FC6010E945F0014C06091960470918B
:100F700097046E5F7F4FC7010E945F0080913D0420
:100F800090913E04C817D90720F4D0933E04C09333
:100F90003D04DF91CF911F910F91FF90EF90DF9073
:100FA000CF900895EF92FF920F930E9458060097FA
:100FB00021F00E94D80681E001C08FEF0F91FF90D1
:100FC000EF900895EF92FF920F931F93CF93DF93CB
:100FD000CDB7DEB728970FB6F894DEBF0FBECDBFF2
:100FE00020E012C0822F022E000C990BFC01EE5F54
:100FF000FE4F3081E1E0F0E0EC0FFD1FE80FF91F3C
:101000003083332319F02F5F283064F310E081E040
:1010100015C0812F880F990B9C01255C3B4F7901EE
:1010200000E020E030E04CE3BE016F5F7F4F8BE7D4
:1010300097E00E94D207882319F01F5F11164CF722
:1010400028960FB6F894DEBF0FBECDBFDF91CF91CB
:101050001F910F91FF90EF9008950E94E207813059
:1010600081F4F8948FEF9FEF90933E0480933D04BA
:1010700081E08093440410924704109246040E9439
:10108000300180910001089580913A048F5F809330
:101090003A0408950F931F93CF93DF9380913A04FE
:1010A000811101C1C0914604D09147048E010F5FA8
:1010B0001F4F109347040093460401151105B9F41E
:1010C00080915E0490915F0420915C0430915D04F6
:1010D00030935F0420935E0490935D0480935C04DE
:1010E000809140048F5F809340040E94CE058091E0
:1010F0003D0490913E040817190720F480E0B8C021
:1011000081E001C080E0E0915E04F0915F04908195
:10111000911107C02FEF3FEF30933E0420933D0421
:10112000A7C0E0915E04F0915F040580F681E02D98
:101130000680F781E02D228133810217130728F4FE
:1011400030933E0420933D0493C0A285B38524814F
:10115000358146815781E9015D834C832681378142
:1011600044815581E9015B834A8311962D913C911D
:101170001297AF014E5F5F4F2417350731F4268178
:10118000378112963C932E931197138612869C9169
:1011900091509C93A489B589109719F126853785BC
:1011A00060897189E9017D836C8320893189668535
:1011B0007785E9017B836A8311966D917C91129703
:1011C0009F01245F3F4F6217730731F420893189F3
:1011D00012963C932E931197158A148A9C919150E4
:1011E0009C93268990914504921710F4209345040E
:1011F00030E0D901AA0FBB1FAA0FBB1FAA0FBB1F4C
:101200002A0F3B1FD901AE58BB4F11960D90BC91D0
:10121000A02DB583A48314962D913C911597378307
:10122000268314962D913C911597E9015B834A839F
:1012300015965C934E931497A689B0E09D01220FFA
:10124000331F220F331F220F331FA20FB31FAE58BD
:10125000BB4FB387A2879C919F5F9C932689E091A7
:101260009604F09197049689921708F449CF4BCFD2
:10127000E0919604F0919704268930E0F901EE0F91
:10128000FF1FEE0FFF1FEE0FFF1F2E0F3F1FF90175
:10129000EE58FB4F9081923008F081E0909141042C
:1012A00091110CC00CC080914204909143040196AE
:1012B000909343048093420480E001C081E0DF9179
:1012C000CF911F910F910895CF93DF930FB6F894AC
:1012D0000F9280913A04815080933A0480913A04AD
:1012E0008111C3C080914804811196C0C1C0E091B2
:1012F0005804F09159040680F781E02DA489B5893E
:10130000C685D785808991899D838C83C089D18941
:10131000868597859B838A8311962D913C911297A0
:10132000CF010C962817390731F4808991891296DC
:101330009C938E931197158A148A8C9181508C936B
:10134000A285B385C481D581868197819D838C8355
:10135000C681D781848195819B838A8311968D91E3
:101360009C9112979F012E5F3F4F8217930731F494
:101370008681978112969C938E931197138612867D
:101380008C9181508C93868990914504981710F424
:101390008093450490E0DC01AA0FBB1FAA0FBB1F7E
:1013A000AA0FBB1F8A0F9B1FDC01AE58BB4F1196C3
:1013B0000D90BC91A02DB583A48314968D919C9122
:1013C0001597978386831496CD91DC9115973B836F
:1013D0002A8315963C932E931497A689B0E0CD01ED
:1013E000880F991F880F991F880F991FA80FB91F81
:1013F000AE58BB4FB387A2878C918F5F8C93968931
:10140000A0919604B091970456968C91891730F468
:1014100081E08093410402C0E0E0F0E08091530459
:10142000811165CFEF2B11F00E94CE05C0914204CF
:10143000D0914304209769F00E944A08882319F04C
:1014400081E0809341042197B9F7109243041092F0
:10145000420480914104882351F080919604909138
:1014600097040E945F0181E003C080E001C080E03A
:101470000F900FBEDF91CF910895CF93DF93EC01D2
:10148000892B49F00E94440860E0CE010E94840745
:101490000E94640901C080E0811102C00E945F01C6
:1014A000DF91CF91089580913A04882321F081E063
:1014B000809341040895109241042091450401C095
:1014C0002150822F90E0FC01EE0FFF1FEE0FFF1F57
:1014D000EE0FFF1FE80FF91FEE58FB4F308133234B
:1014E00079F3AC01440F551F440F551F440F551F8E
:1014F000480F591FFA01EE58FB4FA181B281129695
:101500006D917C911397728361834B585B4F641785
:10151000750779F4FC01EE0FFF1FEE0FFF1FEE0FB2
:10152000FF1FE80FF91FEE58FB4F4581568152838C
:101530004183FC01EE0FFF1FEE0FFF1FEE0FFF1F99
:101540008E0F9F1FFC01EE58FB4F0180F281E02DB2
:101550008681978190939704809396042093450405
:1015600080919604909197040895CF93DF93EB01B7
:101570006091960470919704645F7F4F0E945F00B2
:1015800061E0CE010E948407DF91CF910895CF934F
:10159000DF93DC011596ED91FC9116970680F7819B
:1015A000E02DA489B589C685D785808991899D83D9
:1015B0008C83C089D189868597859B838A83119680
:1015C0008D919C9112979F01245F3F4F8217930743
:1015D00031F48089918912969C938E931197158A84
:1015E000148A8C9181508C9380913A04811160C04F
:1015F000A285B385C481D581868197819D838C83A3
:10160000C681D781848195819B838A8311968D9130
:101610009C9112979F012E5F3F4F8217930731F4E1
:101620008681978112969C938E93119713861286CA
:101630008C9181508C93868990914504981710F471
:101640008093450490E0DC01AA0FBB1FAA0FBB1FCB
:10165000AA0FBB1F8A0F9B1FDC01AE58BB4F119610
:101660000D90BC91A02DB583A48314968D919C916F
:101670001597978386831496CD91DC9115973B83BC
:101680002A8315963C932E931497A689B0E0CD013A
:10169000880F991F880F991F880F991FA80FB91FCE
:1016A000AE58BB4FB387A2878C918F5F8C931CC0C1
:1016B00043E554E0DA011196CD91DC911297D7877A
:1016C000C6878C819D81918B808B8C819D81DC0173
:1016D00013963C932E9312973D832C83558B448B0A
:1016E000DA018C918F5F8C939689E0919604F0914A
:1016F00097048689891720F481E08093410401C012
:1017000080E0DF91CF91089520914004FC01208377
:101710002091460430914704328321830895CF936A
:10172000DF930FB6F8940F9240914604509147040E
:10173000EC0129813A81DA01A21BB30BF881E09117
:101740004004FE1741F04217530728F0FB011182B5
:10175000108281E011C0EB0128813981A217B30703
:1017600040F42A1B3B0B398328830E94840B80E0C2
:1017700003C01982188281E00F900FBEDF91CF91D4
:10178000089581E08093410408950F931F93CF93B0
:10179000DF93FC01892B09F484C02689A09196046B
:1017A000B091970456968C91281708F070C08485E4
:1017B0009585992364F0A0919604B091970456966C
:1017C0003C9184E090E0831B910995878487828512
:1017D000938530E0A901440F551F440F551F440F56
:1017E000551F240F351F2E583B4F8217930709F0C2
:1017F00045C0EF018F010E5F1F4FC8010E9490008E
:10180000E0919604F091970486898E8B909145041F
:10181000981710F48093450490E0FC01EE0FFF1F31
:10182000EE0FFF1FEE0FFF1F8E0F9F1FFC01EE58E4
:10183000FB4F0180F281E02DFD83EC838481958153
:101840009F838E83A481B58113961C930E93129768
:10185000158304838E8990E0FC01EE0FFF1FEE0FCD
:10186000FF1FEE0FFF1FE80FF91FEE58FB4FFB871E
:10187000EA8780818F5F808381E016C0A091960403
:10188000B091970456968C91868B81E00DC091A102
:10189000E0919604F09197048689981720F080E0F3
:1018A00003C080E001C081E0DF91CF911F910F91D3
:1018B00008950F931F93CF93DF93FC01892B09F4B5
:1018C00051C082A1815082A3268991A1291709F4D0
:1018D0004BC081114BC0EF018F010E5F1F4FC8013C
:1018E0000E94900089A18E8B24E030E0281B3109F2
:1018F0003D872C8790914504981710F480934504F8
:1019000090E0FC01EE0FFF1FEE0FFF1FEE0FFF1F19
:101910008E0F9F1FFC01EE58FB4F0180F281E02DDE
:10192000FD83EC83848195819F838E83A481B5811F
:1019300013961C930E93129715830483EE89F0E09F
:10194000CF01880F991F880F991F880F991FE80FE3
:10195000F91FEE58FB4FFB87EA8780818F5F8083FA
:1019600081E005C080E003C080E001C080E0DF913D
:10197000CF911F910F9108950F931F93CF93DF93F2
:10198000FC01892B09F466C091A1961708F4962FE3
:101990008689981709F45EC022A1213009F05AC047
:1019A000968B24853585332334F024E030E0291BE1
:1019B0003109358724872285338590E0AC01440FB7
:1019C000551F440F551F440F551F840F951F8E58E8
:1019D0009B4F28173907F1F5EF018F010E5F1F4F5D
:1019E000C8010E9490008E8990914504981710F4C8
:1019F0008093450490E0FC01EE0FFF1FEE0FFF1FE8
:101A0000EE0FFF1F8E0F9F1FFC01EE58FB4F018052
:101A1000F281E02DFD83EC83848195819F838E8309
:101A2000A481B58113961C930E931297158304839A
:101A30008E8990E0FC01EE0FFF1FEE0FFF1FEE0FEF
:101A4000FF1FE80FF91FEE58FB4FFB87EA878081E5
:101A50008F5F8083DF91CF911F910F9108958091C7
:101A6000960490919704009721F0FC0122A12F5F2A
:101A700022A3089584B18F7D84B985B1806285B930
:101A8000089583B182958695877091E0892781704A
:101A9000089580E480937C0087E880937A0008951D
:101AA000ECE7F0E08081807E8083EAE7F0E08081EF
:101AB0008064808380917A0086FDFCCF209178003D
:101AC00030917900A4EFB1E00E943B0FDC01CB0123
:101AD000072E7AE0B695A795979587957A95D1F7D1
:101AE000702D089584B18C6084B9089585B18460A7
:101AF00085B985B1877F85B9089585B18B7F85B913
:101B000085B1877F85B90895CF93DF931F92CDB7B5
:101B1000DEB719820E94410D182F81112DC08091CE
:101B20000101813049F580939804198220E04FEF3C
:101B30005FEFBE016F5F7F4F8091990490919A048F
:101B40000E94DE036FEF7FEF80919B0490919C04D5
:101B50000E941D058130C1F487E091E00E94C00E13
:101B600020E040E050E060E070E080919B049091C4
:101B70009C040E94DE0308C0113031F48091010101
:101B8000811102C0109298041093010184E690E044
:101B90000E943D0ABFCFCF93DF931F92CDB7DEB730
:101BA00080919804811134C00E94500D182F81E05B
:101BB0001A3108F480E0898320E04FEF5FEFBE0127
:101BC0006F5F7F4F8091990490919A040E94DE0389
:101BD0006FEF7FEF80919B0490919C040E941D0504
:101BE0008130B1F483E391E00E94C00E812F0E9406
:101BF000CD0E83E491E00E94C00E20E040E050E072
:101C000060E070E080919B0490919C040E94DE0350
:101C100084EF91E00E943D0AC3CFCF93DF931F92E0
:101C2000CDB7DEB74FEF5FEFBE016F5F7F4F8091A3
:101C3000990490919A040E948E04813099F78981C9
:101C4000813019F40E94760D02C00E947D0D6FEF65
:101C50007FEF80919B0490919C040E941D05813030
:101C600009F78CE591E00E94C00E8981813019F45A
:101C700088E491E002C082E591E00E94C00E20E07D
:101C800040E050E060E070E080919B0490919C0403
:101C90000E94DE03C7CF60E875E280E090E00E941A
:101CA000920E0E94490D0E943A0D0E94720D40E072
:101CB00061E085E00E949D0390939A0480939904CB
:101CC00081E00E94800490939C0480939B04209167
:101CD000990430919A04232B21F1892B11F1E12CE5
:101CE000F12C03E020E030E044E66DE671E084E8AA
:101CF0009DE00E94D20702E020E030E044E661E788
:101D000071E08BEC9DE00E94D20701E020E030E022
:101D100044E666E771E08DE09EE00E94D2070E94F3
:101D20002D08FFCFDC01CB01880F991FAA1FBB1F15
:101D3000880F991FAA1FBB1F9C01AD01220F331FE3
:101D4000441F551F220F331F441F551F60E072E1CF
:101D50008AE790E00E94190F215031093093C500A5
:101D60002093C40088E08093C10086E08093C20085
:101D700008959091C00095FFFCCF8093C600089510
:101D8000CF93DF93EC0103C021960E94B90E8881A6
:101D90008111FACFDF91CF910895CF93C82F843668
:101DA00048F089E2C89F812D112482958F70805D53
:101DB0000E94B90ECA30B0F09DECC99F812D11244C
:101DC000869586958695899F912D11249695969551
:101DD0009695990F292F220F220F920F891B805D54
:101DE0000E94B90E9DECC99F912D11249695969550
:101DF0009695990F892F880F880F980F8C2F891B24
:101E0000805D0E94B90ECF910895AA1BBB1B51E1C2
:101E100007C0AA1FBB1FA617B70710F0A61BB70B5A
:101E2000881F991F5A95A9F780959095BC01CD01FF
:101E30000895A1E21A2EAA1BBB1BFD010DC0AA1F0B
:101E4000BB1FEE1FFF1FA217B307E407F50720F023
:101E5000A21BB30BE40BF50B661F771F881F991F9E
:101E60001A9469F760957095809590959B01AC01E7
:101E7000BD01CF010895A29FB001B39FC001A39FF0
:101E8000700D811D1124911DB29F700D811D1124B3
:101E9000911D0895FB01DC0102C001900D9241509B
:0A1EA0005040D8F70895F894FFCFE2
:101EAA00030149444C45005B4F564552524944454B
:101EBA005D20427574746F6E204F70656E3A2046CD
:101ECA006F7263696E67204D6F746F72204F46465A
:101EDA000D0A005B53656E736F725D2054656D70F9
:101EEA003A200020430D0A0052554E4E494E470DE6
:101EFA000A0053544F505045440D0A005B4D6F740D
:101F0A006F725D20416374696F6E3A200042544ECD
:0A1F1A000054454D50004D4F540097
:00000001FF
